{
  "contractName": "SimpleCounter",
  "abi": [
    {
      "inputs": [],
      "name": "counter",
      "outputs": [
        {
          "internalType": "uint256",
          "name": "",
          "type": "uint256"
        }
      ],
      "stateMutability": "view",
      "type": "function",
      "constant": true
    },
    {
      "inputs": [],
      "name": "incrementCounter",
      "outputs": [],
      "stateMutability": "nonpayable",
      "type": "function"
    }
  ],
  "bytecode": "0x608060405234801561001057600080fd5b50610163806100206000396000f3fe608060405234801561001057600080fd5b50600436106100365760003560e01c80635b34b9661461003b57806361bc221a14610045575b600080fd5b610043610063565b005b61004d61007c565b60405161005a919061009b565b60405180910390f35b600080815480929190610075906100e5565b9190505550565b60005481565b6000819050919050565b61009581610082565b82525050565b60006020820190506100b0600083018461008c565b92915050565b7f4e487b7100000000000000000000000000000000000000000000000000000000600052601160045260246000fd5b60006100f082610082565b91507fffffffffffffffffffffffffffffffffffffffffffffffffffffffffffffffff8203610122576101216100b6565b5b60018201905091905056fea26469706673582212203b5dd7cba38e93657de78a836871bb976df2c5439d6caa34499c52bfa164b98a64736f6c634300080e0033",
  "immutableReferences": {},
  "source": "//SPDX-License-Identifier: MIT\npragma solidity ^0.8.0;\n\ncontract SimpleCounter {\n    uint256 public counter;\n\n    function incrementCounter() public {\n        counter++;\n    }\n}\n",
  "sourcePath": "/Users/aleschwartzman/Documents/verify-example-mumbai/contracts/SimpleCounter.sol",
  "compiler": {
    "name": "solc",
    "version": "0.8.14+commit.80d49f37.Emscripten.clang"
  },
  "schemaVersion": "3.4.7",
  "updatedAt": "2022-06-11T19:14:33.636Z",
  "networkType": "ethereum",
  "devdoc": {
    "kind": "dev",
    "methods": {},
    "version": 1
  },
  "userdoc": {
    "kind": "user",
    "methods": {},
    "version": 1
  }
}